{
  "address": "0xFA32152B98CAF6fbc9B6e9762021d7ce1B7FBDa5",
  "abi": [
    {
      "inputs": [
        {
          "internalType": "address",
          "name": "_ethMaskAddress",
          "type": "address"
        },
        {
          "internalType": "address",
          "name": "_btcMaskAddress",
          "type": "address"
        },
        {
          "internalType": "address",
          "name": "_hopeAddress",
          "type": "address"
        },
        {
          "internalType": "uint256",
          "name": "_k",
          "type": "uint256"
        }
      ],
      "stateMutability": "nonpayable",
      "type": "constructor"
    },
    {
      "anonymous": false,
      "inputs": [
        {
          "indexed": true,
          "internalType": "address",
          "name": "previousOwner",
          "type": "address"
        },
        {
          "indexed": true,
          "internalType": "address",
          "name": "newOwner",
          "type": "address"
        }
      ],
      "name": "OwnershipTransferStarted",
      "type": "event"
    },
    {
      "anonymous": false,
      "inputs": [
        {
          "indexed": true,
          "internalType": "address",
          "name": "previousOwner",
          "type": "address"
        },
        {
          "indexed": true,
          "internalType": "address",
          "name": "newOwner",
          "type": "address"
        }
      ],
      "name": "OwnershipTransferred",
      "type": "event"
    },
    {
      "anonymous": false,
      "inputs": [
        {
          "indexed": false,
          "internalType": "address[]",
          "name": "tokens",
          "type": "address[]"
        },
        {
          "indexed": false,
          "internalType": "address[]",
          "name": "priceFeed",
          "type": "address[]"
        },
        {
          "indexed": false,
          "internalType": "uint256[]",
          "name": "factors",
          "type": "uint256[]"
        }
      ],
      "name": "ReserveUpdate",
      "type": "event"
    },
    {
      "anonymous": false,
      "inputs": [
        {
          "indexed": true,
          "internalType": "bytes32",
          "name": "role",
          "type": "bytes32"
        },
        {
          "indexed": true,
          "internalType": "bytes32",
          "name": "previousAdminRole",
          "type": "bytes32"
        },
        {
          "indexed": true,
          "internalType": "bytes32",
          "name": "newAdminRole",
          "type": "bytes32"
        }
      ],
      "name": "RoleAdminChanged",
      "type": "event"
    },
    {
      "anonymous": false,
      "inputs": [
        {
          "indexed": true,
          "internalType": "bytes32",
          "name": "role",
          "type": "bytes32"
        },
        {
          "indexed": true,
          "internalType": "address",
          "name": "account",
          "type": "address"
        },
        {
          "indexed": true,
          "internalType": "address",
          "name": "sender",
          "type": "address"
        }
      ],
      "name": "RoleGranted",
      "type": "event"
    },
    {
      "anonymous": false,
      "inputs": [
        {
          "indexed": true,
          "internalType": "bytes32",
          "name": "role",
          "type": "bytes32"
        },
        {
          "indexed": true,
          "internalType": "address",
          "name": "account",
          "type": "address"
        },
        {
          "indexed": true,
          "internalType": "address",
          "name": "sender",
          "type": "address"
        }
      ],
      "name": "RoleRevoked",
      "type": "event"
    },
    {
      "inputs": [],
      "name": "BTC_ADDRESS",
      "outputs": [
        {
          "internalType": "address",
          "name": "",
          "type": "address"
        }
      ],
      "stateMutability": "view",
      "type": "function"
    },
    {
      "inputs": [],
      "name": "DEFAULT_ADMIN_ROLE",
      "outputs": [
        {
          "internalType": "bytes32",
          "name": "",
          "type": "bytes32"
        }
      ],
      "stateMutability": "view",
      "type": "function"
    },
    {
      "inputs": [],
      "name": "ETH_ADDRESS",
      "outputs": [
        {
          "internalType": "address",
          "name": "",
          "type": "address"
        }
      ],
      "stateMutability": "view",
      "type": "function"
    },
    {
      "inputs": [],
      "name": "HOPE_ADDRESS",
      "outputs": [
        {
          "internalType": "address",
          "name": "",
          "type": "address"
        }
      ],
      "stateMutability": "view",
      "type": "function"
    },
    {
      "inputs": [],
      "name": "K",
      "outputs": [
        {
          "internalType": "uint256",
          "name": "",
          "type": "uint256"
        }
      ],
      "stateMutability": "view",
      "type": "function"
    },
    {
      "inputs": [],
      "name": "OPERATOR_ROLE",
      "outputs": [
        {
          "internalType": "bytes32",
          "name": "",
          "type": "bytes32"
        }
      ],
      "stateMutability": "view",
      "type": "function"
    },
    {
      "inputs": [],
      "name": "acceptOwnership",
      "outputs": [],
      "stateMutability": "nonpayable",
      "type": "function"
    },
    {
      "inputs": [
        {
          "internalType": "address",
          "name": "_operator",
          "type": "address"
        }
      ],
      "name": "addOperator",
      "outputs": [],
      "stateMutability": "nonpayable",
      "type": "function"
    },
    {
      "inputs": [],
      "name": "getHOPETotalSupply",
      "outputs": [
        {
          "internalType": "uint256",
          "name": "",
          "type": "uint256"
        }
      ],
      "stateMutability": "view",
      "type": "function"
    },
    {
      "inputs": [
        {
          "internalType": "address",
          "name": "token",
          "type": "address"
        }
      ],
      "name": "getReservePrice",
      "outputs": [
        {
          "internalType": "uint256",
          "name": "",
          "type": "uint256"
        }
      ],
      "stateMutability": "view",
      "type": "function"
    },
    {
      "inputs": [
        {
          "internalType": "address",
          "name": "token",
          "type": "address"
        }
      ],
      "name": "getReserveTokenConfig",
      "outputs": [
        {
          "internalType": "address",
          "name": "",
          "type": "address"
        },
        {
          "internalType": "uint256",
          "name": "",
          "type": "uint256"
        },
        {
          "internalType": "bool",
          "name": "",
          "type": "bool"
        }
      ],
      "stateMutability": "view",
      "type": "function"
    },
    {
      "inputs": [],
      "name": "getReserveTokens",
      "outputs": [
        {
          "internalType": "address[]",
          "name": "",
          "type": "address[]"
        }
      ],
      "stateMutability": "view",
      "type": "function"
    },
    {
      "inputs": [
        {
          "internalType": "bytes32",
          "name": "role",
          "type": "bytes32"
        }
      ],
      "name": "getRoleAdmin",
      "outputs": [
        {
          "internalType": "bytes32",
          "name": "",
          "type": "bytes32"
        }
      ],
      "stateMutability": "view",
      "type": "function"
    },
    {
      "inputs": [
        {
          "internalType": "bytes32",
          "name": "role",
          "type": "bytes32"
        },
        {
          "internalType": "address",
          "name": "account",
          "type": "address"
        }
      ],
      "name": "grantRole",
      "outputs": [],
      "stateMutability": "nonpayable",
      "type": "function"
    },
    {
      "inputs": [
        {
          "internalType": "bytes32",
          "name": "role",
          "type": "bytes32"
        },
        {
          "internalType": "address",
          "name": "account",
          "type": "address"
        }
      ],
      "name": "hasRole",
      "outputs": [
        {
          "internalType": "bool",
          "name": "",
          "type": "bool"
        }
      ],
      "stateMutability": "view",
      "type": "function"
    },
    {
      "inputs": [
        {
          "internalType": "address",
          "name": "_operator",
          "type": "address"
        }
      ],
      "name": "isOperator",
      "outputs": [
        {
          "internalType": "bool",
          "name": "",
          "type": "bool"
        }
      ],
      "stateMutability": "view",
      "type": "function"
    },
    {
      "inputs": [],
      "name": "latestAnswer",
      "outputs": [
        {
          "internalType": "uint256",
          "name": "",
          "type": "uint256"
        }
      ],
      "stateMutability": "view",
      "type": "function"
    },
    {
      "inputs": [],
      "name": "owner",
      "outputs": [
        {
          "internalType": "address",
          "name": "",
          "type": "address"
        }
      ],
      "stateMutability": "view",
      "type": "function"
    },
    {
      "inputs": [],
      "name": "pendingOwner",
      "outputs": [
        {
          "internalType": "address",
          "name": "",
          "type": "address"
        }
      ],
      "stateMutability": "view",
      "type": "function"
    },
    {
      "inputs": [
        {
          "internalType": "address",
          "name": "_operator",
          "type": "address"
        }
      ],
      "name": "removeOperator",
      "outputs": [],
      "stateMutability": "nonpayable",
      "type": "function"
    },
    {
      "inputs": [],
      "name": "renounceOwnership",
      "outputs": [],
      "stateMutability": "nonpayable",
      "type": "function"
    },
    {
      "inputs": [
        {
          "internalType": "bytes32",
          "name": "role",
          "type": "bytes32"
        },
        {
          "internalType": "address",
          "name": "account",
          "type": "address"
        }
      ],
      "name": "renounceRole",
      "outputs": [],
      "stateMutability": "nonpayable",
      "type": "function"
    },
    {
      "inputs": [
        {
          "internalType": "bytes32",
          "name": "role",
          "type": "bytes32"
        },
        {
          "internalType": "address",
          "name": "account",
          "type": "address"
        }
      ],
      "name": "revokeRole",
      "outputs": [],
      "stateMutability": "nonpayable",
      "type": "function"
    },
    {
      "inputs": [
        {
          "internalType": "address[]",
          "name": "tokens",
          "type": "address[]"
        },
        {
          "internalType": "address[]",
          "name": "priceFeeds",
          "type": "address[]"
        },
        {
          "internalType": "uint256[]",
          "name": "factors",
          "type": "uint256[]"
        }
      ],
      "name": "setReserveTokens",
      "outputs": [],
      "stateMutability": "nonpayable",
      "type": "function"
    },
    {
      "inputs": [
        {
          "internalType": "bytes4",
          "name": "interfaceId",
          "type": "bytes4"
        }
      ],
      "name": "supportsInterface",
      "outputs": [
        {
          "internalType": "bool",
          "name": "",
          "type": "bool"
        }
      ],
      "stateMutability": "view",
      "type": "function"
    },
    {
      "inputs": [
        {
          "internalType": "address",
          "name": "newOwner",
          "type": "address"
        }
      ],
      "name": "transferOwnership",
      "outputs": [],
      "stateMutability": "nonpayable",
      "type": "function"
    }
  ],
  "transactionHash": "0x5de843188c6771c63273a9c350bf9ebce47e7390b558a5ac2de43d052223465b",
  "args": [
    "0xEeeeeEeeeEeEeeEeEeEeeEEEeeeeEeeeeeeeEEeE",
    "0xbBbBBBBbbBBBbbbBbbBbbbbBBbBbbbbBbBbbBBbB",
    "0x70C8C67CfbE228c7437Ec586a751a408e23355F4",
    1080180484347501
  ],
  "numDeployments": 1,
  "solcInputHash": "a02306f0ababf2fcfe58efec8c8dd921",
  "bytecode": "0x6101006040523480156200001257600080fd5b5060405162001edc38038062001edc8339810160408190526200003591620000fa565b620000403362000063565b6001600160a01b0393841660a05291831660c05290911660e0526080526200014c565b600180546001600160a01b03191690556200008a816200008d602090811b62000fd117901c565b50565b600080546001600160a01b038381166001600160a01b0319831681178455604051919092169283917f8be0079c531659141344cd1fd0a4f28419497f9722a3daafe3b4186f6b6457e09190a35050565b80516001600160a01b0381168114620000f557600080fd5b919050565b600080600080608085870312156200011157600080fd5b6200011c85620000dd565b93506200012c60208601620000dd565b92506200013c60408601620000dd565b6060959095015193969295505050565b60805160a05160c05160e051611d4862000194600039600081816104a00152610dfb0152600061045b015260006103ca0152600081816103f101526112130152611d486000f3fe608060405234801561001057600080fd5b50600436106101ae5760003560e01c80639870d7fe116100ee578063d1f3ae1b11610097578063e30c397811610071578063e30c39781461047d578063f1c20b7e1461049b578063f2fde38b146104c2578063f5b541a6146104d557600080fd5b8063d1f3ae1b1461042e578063d547741f14610443578063daf4fa7b1461045657600080fd5b8063a932492f116100c8578063a932492f146103ec578063ac8a584a14610413578063d172f7dc1461042657600080fd5b80639870d7fe146103aa578063a217fddf146103bd578063a734f06e146103c557600080fd5b8063533e7bf71161015b578063715018a611610135578063715018a61461031557806379ba50971461031d5780638da5cb5b1461032557806391d148541461036457600080fd5b8063533e7bf71461024f5780636607c021146102ef5780636d70f7ae1461030257600080fd5b80632f2ff15d1161018c5780632f2ff15d1461021f57806336568abe1461023457806350d25bcd1461024757600080fd5b806301ffc9a7146101b35780631321acd8146101db578063248a9ca3146101fc575b600080fd5b6101c66101c1366004611732565b6104fc565b60405190151581526020015b60405180910390f35b6101ee6101e936600461179d565b610595565b6040519081526020016101d2565b6101ee61020a3660046117b8565b60009081526002602052604090206001015490565b61023261022d3660046117d1565b610664565b005b6102326102423660046117d1565b61068e565b6101ee610746565b6102bb61025d36600461179d565b73ffffffffffffffffffffffffffffffffffffffff80821660009081526004602090815260409182902082516060810184528154909416808552600182015492850183905260029091015460ff161515939092018390529093909250565b6040805173ffffffffffffffffffffffffffffffffffffffff909416845260208401929092521515908201526060016101d2565b6102326102fd366004611911565b610833565b6101c661031036600461179d565b610b77565b610232610bc4565b610232610bd8565b60005473ffffffffffffffffffffffffffffffffffffffff165b60405173ffffffffffffffffffffffffffffffffffffffff90911681526020016101d2565b6101c66103723660046117d1565b600091825260026020908152604080842073ffffffffffffffffffffffffffffffffffffffff93909316845291905290205460ff1690565b6102326103b836600461179d565b610c8d565b6101ee600081565b61033f7f000000000000000000000000000000000000000000000000000000000000000081565b6101ee7f000000000000000000000000000000000000000000000000000000000000000081565b61023261042136600461179d565b610d42565b6101ee610df7565b610436610e8d565b6040516101d29190611a40565b6102326104513660046117d1565b610efc565b61033f7f000000000000000000000000000000000000000000000000000000000000000081565b60015473ffffffffffffffffffffffffffffffffffffffff1661033f565b61033f7f000000000000000000000000000000000000000000000000000000000000000081565b6102326104d036600461179d565b610f21565b6101ee7f97667070c54ef182b0f5858b034beac1b6f3089aa2d3188bb1e8929f4fa9b92981565b60007fffffffff0000000000000000000000000000000000000000000000000000000082167f7965db0b00000000000000000000000000000000000000000000000000000000148061058f57507f01ffc9a7000000000000000000000000000000000000000000000000000000007fffffffff000000000000000000000000000000000000000000000000000000008316145b92915050565b73ffffffffffffffffffffffffffffffffffffffff80821660009081526004602081815260408084208151606081018352815490961680875260018201548785015260029091015460ff1615158683015281517f50d25bcd000000000000000000000000000000000000000000000000000000008152915194959490936350d25bcd9383820193909291908290030181865afa158015610639573d6000803e3d6000fd5b505050506040513d601f19601f8201168201806040525081019061065d9190611a53565b9392505050565b60008281526002602052604090206001015461067f81611046565b6106898383611050565b505050565b73ffffffffffffffffffffffffffffffffffffffff81163314610738576040517f08c379a000000000000000000000000000000000000000000000000000000000815260206004820152602f60248201527f416363657373436f6e74726f6c3a2063616e206f6e6c792072656e6f756e636560448201527f20726f6c657320666f722073656c66000000000000000000000000000000000060648201526084015b60405180910390fd5b6107428282611144565b5050565b600080610751610df7565b905060008060005b600354811015610808576000600460006003848154811061077c5761077c611a6c565b600091825260208083209091015473ffffffffffffffffffffffffffffffffffffffff908116845283820194909452604092830182208351606081018552815490951685526001810154918501919091526002015460ff161515918301919091529091506107ea86836111ff565b905060006107f8828461124b565b9590950194505050600101610759565b5082828161081857610818611a9b565b0490506305f5e100811061065d576305f5e100935050505090565b7f97667070c54ef182b0f5858b034beac1b6f3089aa2d3188bb1e8929f4fa9b92961085d81611046565b82518451146108c8576040517f08c379a000000000000000000000000000000000000000000000000000000000815260206004820152601d60248201527f484f5045507269636546656564733a20496e76616c696420696e707574000000604482015260640161072f565b8151845114610933576040517f08c379a000000000000000000000000000000000000000000000000000000000815260206004820152601d60248201527f484f5045507269636546656564733a20496e76616c696420696e707574000000604482015260640161072f565b60005b8451811015610b35576004600086838151811061095557610955611a6c565b60209081029190910181015173ffffffffffffffffffffffffffffffffffffffff1682528101919091526040016000206002015460ff16610a055760038582815181106109a4576109a4611a6c565b60209081029190910181015182546001810184556000938452919092200180547fffffffffffffffffffffffff00000000000000000000000000000000000000001673ffffffffffffffffffffffffffffffffffffffff9092169190911790555b6040518060600160405280858381518110610a2257610a22611a6c565b602002602001015173ffffffffffffffffffffffffffffffffffffffff168152602001848381518110610a5757610a57611a6c565b602002602001015181526020016001151581525060046000878481518110610a8157610a81611a6c565b60209081029190910181015173ffffffffffffffffffffffffffffffffffffffff9081168352828201939093526040918201600020845181547fffffffffffffffffffffffff000000000000000000000000000000000000000016941693909317835583015160018301559190910151600290910180547fffffffffffffffffffffffffffffffffffffffffffffffffffffffffffffff001691151591909117905580610b2d81611af9565b915050610936565b507f8cb59a8d9a41491b6b3766f41a16f150e5ce0ebd039f47ca167aca8508412665848484604051610b6993929190611b31565b60405180910390a150505050565b73ffffffffffffffffffffffffffffffffffffffff811660009081527f6bc781d8c7f9885ebbb3cefbc18932c491038e2ae5c5b56447891e0bd98ea163602052604081205460ff1661058f565b610bcc611364565b610bd660006113e5565b565b600154339073ffffffffffffffffffffffffffffffffffffffff168114610c81576040517f08c379a000000000000000000000000000000000000000000000000000000000815260206004820152602960248201527f4f776e61626c6532537465703a2063616c6c6572206973206e6f74207468652060448201527f6e6577206f776e65720000000000000000000000000000000000000000000000606482015260840161072f565b610c8a816113e5565b50565b610c95611364565b60408051808201909152600281527f3737000000000000000000000000000000000000000000000000000000000000602082015273ffffffffffffffffffffffffffffffffffffffff8216610d17576040517f08c379a000000000000000000000000000000000000000000000000000000000815260040161072f9190611bbe565b50610c8a7f97667070c54ef182b0f5858b034beac1b6f3089aa2d3188bb1e8929f4fa9b92982611050565b610d4a611364565b60408051808201909152600281527f3737000000000000000000000000000000000000000000000000000000000000602082015273ffffffffffffffffffffffffffffffffffffffff8216610dcc576040517f08c379a000000000000000000000000000000000000000000000000000000000815260040161072f9190611bbe565b50610c8a7f97667070c54ef182b0f5858b034beac1b6f3089aa2d3188bb1e8929f4fa9b92982611144565b60007f000000000000000000000000000000000000000000000000000000000000000073ffffffffffffffffffffffffffffffffffffffff166318160ddd6040518163ffffffff1660e01b8152600401602060405180830381865afa158015610e64573d6000803e3d6000fd5b505050506040513d601f19601f82011682018060405250810190610e889190611a53565b905090565b60606003805480602002602001604051908101604052809291908181526020018280548015610ef257602002820191906000526020600020905b815473ffffffffffffffffffffffffffffffffffffffff168152600190910190602001808311610ec7575b5050505050905090565b600082815260026020526040902060010154610f1781611046565b6106898383611144565b610f29611364565b6001805473ffffffffffffffffffffffffffffffffffffffff83167fffffffffffffffffffffffff00000000000000000000000000000000000000009091168117909155610f8c60005473ffffffffffffffffffffffffffffffffffffffff1690565b73ffffffffffffffffffffffffffffffffffffffff167f38d16b8cac22d99fc7c124b9cd0de2d3fa1faef420bfe791d8c362d765e2270060405160405180910390a350565b6000805473ffffffffffffffffffffffffffffffffffffffff8381167fffffffffffffffffffffffff0000000000000000000000000000000000000000831681178455604051919092169283917f8be0079c531659141344cd1fd0a4f28419497f9722a3daafe3b4186f6b6457e09190a35050565b610c8a8133611416565b600082815260026020908152604080832073ffffffffffffffffffffffffffffffffffffffff8516845290915290205460ff1661074257600082815260026020908152604080832073ffffffffffffffffffffffffffffffffffffffff85168452909152902080547fffffffffffffffffffffffffffffffffffffffffffffffffffffffffffffff001660011790556110e63390565b73ffffffffffffffffffffffffffffffffffffffff168173ffffffffffffffffffffffffffffffffffffffff16837f2f8788117e7eff1d82e926ec794901d17c78024a50270940304540a733656f0d60405160405180910390a45050565b600082815260026020908152604080832073ffffffffffffffffffffffffffffffffffffffff8516845290915290205460ff161561074257600082815260026020908152604080832073ffffffffffffffffffffffffffffffffffffffff8516808552925280832080547fffffffffffffffffffffffffffffffffffffffffffffffffffffffffffffff0016905551339285917ff6391f5c32d9c69d2a47ea670b442974b53935d1edc7fd64eb21e047a839171b9190a45050565b60008068056bc75e2d6310000083602001517f00000000000000000000000000000000000000000000000000000000000000008602028161124257611242611a9b565b04949350505050565b600080826000015173ffffffffffffffffffffffffffffffffffffffff166350d25bcd6040518163ffffffff1660e01b8152600401602060405180830381865afa15801561129d573d6000803e3d6000fd5b505050506040513d601f19601f820116820180604052508101906112c19190611a53565b90506000836000015173ffffffffffffffffffffffffffffffffffffffff1663313ce5676040518163ffffffff1660e01b8152600401602060405180830381865afa158015611314573d6000803e3d6000fd5b505050506040513d601f19601f820116820180604052508101906113389190611c0f565b60ff169050600081600a0a6305f5e100848802028161135957611359611a9b565b049695505050505050565b60005473ffffffffffffffffffffffffffffffffffffffff163314610bd6576040517f08c379a000000000000000000000000000000000000000000000000000000000815260206004820181905260248201527f4f776e61626c653a2063616c6c6572206973206e6f7420746865206f776e6572604482015260640161072f565b600180547fffffffffffffffffffffffff0000000000000000000000000000000000000000169055610c8a81610fd1565b600082815260026020908152604080832073ffffffffffffffffffffffffffffffffffffffff8516845290915290205460ff1661074257611456816114d0565b6114618360206114ef565b604051602001611472929190611c32565b604080517fffffffffffffffffffffffffffffffffffffffffffffffffffffffffffffffe0818403018152908290527f08c379a000000000000000000000000000000000000000000000000000000000825261072f91600401611bbe565b606061058f73ffffffffffffffffffffffffffffffffffffffff831660145b606060006114fe836002611cb3565b611509906002611cca565b67ffffffffffffffff811115611521576115216117fd565b6040519080825280601f01601f19166020018201604052801561154b576020820181803683370190505b5090507f30000000000000000000000000000000000000000000000000000000000000008160008151811061158257611582611a6c565b60200101907effffffffffffffffffffffffffffffffffffffffffffffffffffffffffffff1916908160001a9053507f7800000000000000000000000000000000000000000000000000000000000000816001815181106115e5576115e5611a6c565b60200101907effffffffffffffffffffffffffffffffffffffffffffffffffffffffffffff1916908160001a9053506000611621846002611cb3565b61162c906001611cca565b90505b60018111156116c9577f303132333435363738396162636465660000000000000000000000000000000085600f166010811061166d5761166d611a6c565b1a60f81b82828151811061168357611683611a6c565b60200101907effffffffffffffffffffffffffffffffffffffffffffffffffffffffffffff1916908160001a90535060049490941c936116c281611cdd565b905061162f565b50831561065d576040517f08c379a000000000000000000000000000000000000000000000000000000000815260206004820181905260248201527f537472696e67733a20686578206c656e67746820696e73756666696369656e74604482015260640161072f565b60006020828403121561174457600080fd5b81357fffffffff000000000000000000000000000000000000000000000000000000008116811461065d57600080fd5b803573ffffffffffffffffffffffffffffffffffffffff8116811461179857600080fd5b919050565b6000602082840312156117af57600080fd5b61065d82611774565b6000602082840312156117ca57600080fd5b5035919050565b600080604083850312156117e457600080fd5b823591506117f460208401611774565b90509250929050565b7f4e487b7100000000000000000000000000000000000000000000000000000000600052604160045260246000fd5b604051601f82017fffffffffffffffffffffffffffffffffffffffffffffffffffffffffffffffe016810167ffffffffffffffff81118282101715611873576118736117fd565b604052919050565b600067ffffffffffffffff821115611895576118956117fd565b5060051b60200190565b600082601f8301126118b057600080fd5b813560206118c56118c08361187b565b61182c565b82815260059290921b840181019181810190868411156118e457600080fd5b8286015b84811015611906576118f981611774565b83529183019183016118e8565b509695505050505050565b60008060006060848603121561192657600080fd5b833567ffffffffffffffff8082111561193e57600080fd5b61194a8783880161189f565b945060209150818601358181111561196157600080fd5b61196d8882890161189f565b94505060408601358181111561198257600080fd5b86019050601f8101871361199557600080fd5b80356119a36118c08261187b565b81815260059190911b820183019083810190898311156119c257600080fd5b928401925b828410156119e0578335825292840192908401906119c7565b80955050505050509250925092565b600081518084526020808501945080840160005b83811015611a3557815173ffffffffffffffffffffffffffffffffffffffff1687529582019590820190600101611a03565b509495945050505050565b60208152600061065d60208301846119ef565b600060208284031215611a6557600080fd5b5051919050565b7f4e487b7100000000000000000000000000000000000000000000000000000000600052603260045260246000fd5b7f4e487b7100000000000000000000000000000000000000000000000000000000600052601260045260246000fd5b7f4e487b7100000000000000000000000000000000000000000000000000000000600052601160045260246000fd5b60007fffffffffffffffffffffffffffffffffffffffffffffffffffffffffffffffff8203611b2a57611b2a611aca565b5060010190565b606081526000611b4460608301866119ef565b602083820381850152611b5782876119ef565b8481036040860152855180825282870193509082019060005b81811015611b8c57845183529383019391830191600101611b70565b509098975050505050505050565b60005b83811015611bb5578181015183820152602001611b9d565b50506000910152565b6020815260008251806020840152611bdd816040850160208701611b9a565b601f017fffffffffffffffffffffffffffffffffffffffffffffffffffffffffffffffe0169190910160400192915050565b600060208284031215611c2157600080fd5b815160ff8116811461065d57600080fd5b7f416363657373436f6e74726f6c3a206163636f756e7420000000000000000000815260008351611c6a816017850160208801611b9a565b7f206973206d697373696e6720726f6c65200000000000000000000000000000006017918401918201528351611ca7816028840160208801611b9a565b01602801949350505050565b808202811582820484141761058f5761058f611aca565b8082018082111561058f5761058f611aca565b600081611cec57611cec611aca565b507fffffffffffffffffffffffffffffffffffffffffffffffffffffffffffffffff019056fea2646970667358221220e8f4e288556340c9ce5d362748c9fd3dbd7f8ed3a0c2715fe47b8b64f823a07864736f6c63430008110033",
  "devdoc": {
    "kind": "dev",
    "methods": {
      "acceptOwnership()": {
        "details": "The new owner accepts the ownership transfer."
      },
      "getRoleAdmin(bytes32)": {
        "details": "Returns the admin role that controls `role`. See {grantRole} and {revokeRole}. To change a role's admin, use {_setRoleAdmin}."
      },
      "grantRole(bytes32,address)": {
        "details": "Grants `role` to `account`. If `account` had not been already granted `role`, emits a {RoleGranted} event. Requirements: - the caller must have ``role``'s admin role. May emit a {RoleGranted} event."
      },
      "hasRole(bytes32,address)": {
        "details": "Returns `true` if `account` has been granted `role`."
      },
      "owner()": {
        "details": "Returns the address of the current owner."
      },
      "pendingOwner()": {
        "details": "Returns the address of the pending owner."
      },
      "renounceOwnership()": {
        "details": "Leaves the contract without owner. It will not be possible to call `onlyOwner` functions anymore. Can only be called by the current owner. NOTE: Renouncing ownership will leave the contract without an owner, thereby removing any functionality that is only available to the owner."
      },
      "renounceRole(bytes32,address)": {
        "details": "Revokes `role` from the calling account. Roles are often managed via {grantRole} and {revokeRole}: this function's purpose is to provide a mechanism for accounts to lose their privileges if they are compromised (such as when a trusted device is misplaced). If the calling account had been revoked `role`, emits a {RoleRevoked} event. Requirements: - the caller must be `account`. May emit a {RoleRevoked} event."
      },
      "revokeRole(bytes32,address)": {
        "details": "Revokes `role` from `account`. If `account` had been granted `role`, emits a {RoleRevoked} event. Requirements: - the caller must have ``role``'s admin role. May emit a {RoleRevoked} event."
      },
      "supportsInterface(bytes4)": {
        "details": "See {IERC165-supportsInterface}."
      },
      "transferOwnership(address)": {
        "details": "Starts the ownership transfer of the contract to a new account. Replaces the pending transfer if there is one. Can only be called by the current owner."
      }
    },
    "version": 1
  },
  "userdoc": {
    "kind": "user",
    "methods": {},
    "version": 1
  },
  "storageLayout": {
    "storage": [
      {
        "astId": 3951,
        "contract": "contracts/HOPEPriceFeed/HOPEPriceFeed.sol:HOPEPriceFeed",
        "label": "_owner",
        "offset": 0,
        "slot": "0",
        "type": "t_address"
      },
      {
        "astId": 4064,
        "contract": "contracts/HOPEPriceFeed/HOPEPriceFeed.sol:HOPEPriceFeed",
        "label": "_pendingOwner",
        "offset": 0,
        "slot": "1",
        "type": "t_address"
      },
      {
        "astId": 2007,
        "contract": "contracts/HOPEPriceFeed/HOPEPriceFeed.sol:HOPEPriceFeed",
        "label": "_roles",
        "offset": 0,
        "slot": "2",
        "type": "t_mapping(t_bytes32,t_struct(RoleData)2002_storage)"
      },
      {
        "astId": 181,
        "contract": "contracts/HOPEPriceFeed/HOPEPriceFeed.sol:HOPEPriceFeed",
        "label": "reserveTokens",
        "offset": 0,
        "slot": "3",
        "type": "t_array(t_address)dyn_storage"
      },
      {
        "astId": 186,
        "contract": "contracts/HOPEPriceFeed/HOPEPriceFeed.sol:HOPEPriceFeed",
        "label": "reserveTokenConfigs",
        "offset": 0,
        "slot": "4",
        "type": "t_mapping(t_address,t_struct(TokenConfig)178_storage)"
      }
    ],
    "types": {
      "t_address": {
        "encoding": "inplace",
        "label": "address",
        "numberOfBytes": "20"
      },
      "t_array(t_address)dyn_storage": {
        "base": "t_address",
        "encoding": "dynamic_array",
        "label": "address[]",
        "numberOfBytes": "32"
      },
      "t_bool": {
        "encoding": "inplace",
        "label": "bool",
        "numberOfBytes": "1"
      },
      "t_bytes32": {
        "encoding": "inplace",
        "label": "bytes32",
        "numberOfBytes": "32"
      },
      "t_contract(AggregatorV2V3Interface)1917": {
        "encoding": "inplace",
        "label": "contract AggregatorV2V3Interface",
        "numberOfBytes": "20"
      },
      "t_mapping(t_address,t_bool)": {
        "encoding": "mapping",
        "key": "t_address",
        "label": "mapping(address => bool)",
        "numberOfBytes": "32",
        "value": "t_bool"
      },
      "t_mapping(t_address,t_struct(TokenConfig)178_storage)": {
        "encoding": "mapping",
        "key": "t_address",
        "label": "mapping(address => struct HOPEPriceFeed.TokenConfig)",
        "numberOfBytes": "32",
        "value": "t_struct(TokenConfig)178_storage"
      },
      "t_mapping(t_bytes32,t_struct(RoleData)2002_storage)": {
        "encoding": "mapping",
        "key": "t_bytes32",
        "label": "mapping(bytes32 => struct AccessControl.RoleData)",
        "numberOfBytes": "32",
        "value": "t_struct(RoleData)2002_storage"
      },
      "t_struct(RoleData)2002_storage": {
        "encoding": "inplace",
        "label": "struct AccessControl.RoleData",
        "members": [
          {
            "astId": 1999,
            "contract": "contracts/HOPEPriceFeed/HOPEPriceFeed.sol:HOPEPriceFeed",
            "label": "members",
            "offset": 0,
            "slot": "0",
            "type": "t_mapping(t_address,t_bool)"
          },
          {
            "astId": 2001,
            "contract": "contracts/HOPEPriceFeed/HOPEPriceFeed.sol:HOPEPriceFeed",
            "label": "adminRole",
            "offset": 0,
            "slot": "1",
            "type": "t_bytes32"
          }
        ],
        "numberOfBytes": "64"
      },
      "t_struct(TokenConfig)178_storage": {
        "encoding": "inplace",
        "label": "struct HOPEPriceFeed.TokenConfig",
        "members": [
          {
            "astId": 173,
            "contract": "contracts/HOPEPriceFeed/HOPEPriceFeed.sol:HOPEPriceFeed",
            "label": "priceFeed",
            "offset": 0,
            "slot": "0",
            "type": "t_contract(AggregatorV2V3Interface)1917"
          },
          {
            "astId": 175,
            "contract": "contracts/HOPEPriceFeed/HOPEPriceFeed.sol:HOPEPriceFeed",
            "label": "factor",
            "offset": 0,
            "slot": "1",
            "type": "t_uint256"
          },
          {
            "astId": 177,
            "contract": "contracts/HOPEPriceFeed/HOPEPriceFeed.sol:HOPEPriceFeed",
            "label": "isExist",
            "offset": 0,
            "slot": "2",
            "type": "t_bool"
          }
        ],
        "numberOfBytes": "96"
      },
      "t_uint256": {
        "encoding": "inplace",
        "label": "uint256",
        "numberOfBytes": "32"
      }
    }
  }
}