{
  "address": "0x80647A9D0bFA3DB23231E8052ab9708814044cD1",
  "abi": [
    {
      "inputs": [
        {
          "internalType": "address[]",
          "name": "assets",
          "type": "address[]"
        },
        {
          "internalType": "address[]",
          "name": "sources",
          "type": "address[]"
        },
        {
          "internalType": "address",
          "name": "baseCurrency",
          "type": "address"
        },
        {
          "internalType": "uint256",
          "name": "baseCurrencyUnit",
          "type": "uint256"
        }
      ],
      "stateMutability": "nonpayable",
      "type": "constructor"
    },
    {
      "anonymous": false,
      "inputs": [
        {
          "indexed": true,
          "internalType": "address",
          "name": "asset",
          "type": "address"
        },
        {
          "indexed": true,
          "internalType": "address",
          "name": "source",
          "type": "address"
        }
      ],
      "name": "AssetSourceUpdated",
      "type": "event"
    },
    {
      "anonymous": false,
      "inputs": [
        {
          "indexed": true,
          "internalType": "address",
          "name": "baseCurrency",
          "type": "address"
        },
        {
          "indexed": false,
          "internalType": "uint256",
          "name": "baseCurrencyUnit",
          "type": "uint256"
        }
      ],
      "name": "BaseCurrencySet",
      "type": "event"
    },
    {
      "anonymous": false,
      "inputs": [
        {
          "indexed": true,
          "internalType": "address",
          "name": "previousOwner",
          "type": "address"
        },
        {
          "indexed": true,
          "internalType": "address",
          "name": "newOwner",
          "type": "address"
        }
      ],
      "name": "OwnershipTransferStarted",
      "type": "event"
    },
    {
      "anonymous": false,
      "inputs": [
        {
          "indexed": true,
          "internalType": "address",
          "name": "previousOwner",
          "type": "address"
        },
        {
          "indexed": true,
          "internalType": "address",
          "name": "newOwner",
          "type": "address"
        }
      ],
      "name": "OwnershipTransferred",
      "type": "event"
    },
    {
      "anonymous": false,
      "inputs": [
        {
          "indexed": true,
          "internalType": "bytes32",
          "name": "role",
          "type": "bytes32"
        },
        {
          "indexed": true,
          "internalType": "bytes32",
          "name": "previousAdminRole",
          "type": "bytes32"
        },
        {
          "indexed": true,
          "internalType": "bytes32",
          "name": "newAdminRole",
          "type": "bytes32"
        }
      ],
      "name": "RoleAdminChanged",
      "type": "event"
    },
    {
      "anonymous": false,
      "inputs": [
        {
          "indexed": true,
          "internalType": "bytes32",
          "name": "role",
          "type": "bytes32"
        },
        {
          "indexed": true,
          "internalType": "address",
          "name": "account",
          "type": "address"
        },
        {
          "indexed": true,
          "internalType": "address",
          "name": "sender",
          "type": "address"
        }
      ],
      "name": "RoleGranted",
      "type": "event"
    },
    {
      "anonymous": false,
      "inputs": [
        {
          "indexed": true,
          "internalType": "bytes32",
          "name": "role",
          "type": "bytes32"
        },
        {
          "indexed": true,
          "internalType": "address",
          "name": "account",
          "type": "address"
        },
        {
          "indexed": true,
          "internalType": "address",
          "name": "sender",
          "type": "address"
        }
      ],
      "name": "RoleRevoked",
      "type": "event"
    },
    {
      "inputs": [],
      "name": "BASE_CURRENCY",
      "outputs": [
        {
          "internalType": "address",
          "name": "",
          "type": "address"
        }
      ],
      "stateMutability": "view",
      "type": "function"
    },
    {
      "inputs": [],
      "name": "BASE_CURRENCY_UNIT",
      "outputs": [
        {
          "internalType": "uint256",
          "name": "",
          "type": "uint256"
        }
      ],
      "stateMutability": "view",
      "type": "function"
    },
    {
      "inputs": [],
      "name": "DEFAULT_ADMIN_ROLE",
      "outputs": [
        {
          "internalType": "bytes32",
          "name": "",
          "type": "bytes32"
        }
      ],
      "stateMutability": "view",
      "type": "function"
    },
    {
      "inputs": [],
      "name": "OPERATOR_ROLE",
      "outputs": [
        {
          "internalType": "bytes32",
          "name": "",
          "type": "bytes32"
        }
      ],
      "stateMutability": "view",
      "type": "function"
    },
    {
      "inputs": [],
      "name": "acceptOwnership",
      "outputs": [],
      "stateMutability": "nonpayable",
      "type": "function"
    },
    {
      "inputs": [
        {
          "internalType": "address",
          "name": "_operator",
          "type": "address"
        }
      ],
      "name": "addOperator",
      "outputs": [],
      "stateMutability": "nonpayable",
      "type": "function"
    },
    {
      "inputs": [
        {
          "internalType": "address",
          "name": "asset",
          "type": "address"
        }
      ],
      "name": "getAssetPrice",
      "outputs": [
        {
          "internalType": "uint256",
          "name": "",
          "type": "uint256"
        }
      ],
      "stateMutability": "view",
      "type": "function"
    },
    {
      "inputs": [
        {
          "internalType": "address[]",
          "name": "assets",
          "type": "address[]"
        }
      ],
      "name": "getAssetsPrices",
      "outputs": [
        {
          "internalType": "uint256[]",
          "name": "",
          "type": "uint256[]"
        }
      ],
      "stateMutability": "view",
      "type": "function"
    },
    {
      "inputs": [
        {
          "internalType": "bytes32",
          "name": "role",
          "type": "bytes32"
        }
      ],
      "name": "getRoleAdmin",
      "outputs": [
        {
          "internalType": "bytes32",
          "name": "",
          "type": "bytes32"
        }
      ],
      "stateMutability": "view",
      "type": "function"
    },
    {
      "inputs": [
        {
          "internalType": "address",
          "name": "asset",
          "type": "address"
        }
      ],
      "name": "getSourceOfAsset",
      "outputs": [
        {
          "internalType": "address",
          "name": "",
          "type": "address"
        }
      ],
      "stateMutability": "view",
      "type": "function"
    },
    {
      "inputs": [
        {
          "internalType": "bytes32",
          "name": "role",
          "type": "bytes32"
        },
        {
          "internalType": "address",
          "name": "account",
          "type": "address"
        }
      ],
      "name": "grantRole",
      "outputs": [],
      "stateMutability": "nonpayable",
      "type": "function"
    },
    {
      "inputs": [
        {
          "internalType": "bytes32",
          "name": "role",
          "type": "bytes32"
        },
        {
          "internalType": "address",
          "name": "account",
          "type": "address"
        }
      ],
      "name": "hasRole",
      "outputs": [
        {
          "internalType": "bool",
          "name": "",
          "type": "bool"
        }
      ],
      "stateMutability": "view",
      "type": "function"
    },
    {
      "inputs": [
        {
          "internalType": "address",
          "name": "_operator",
          "type": "address"
        }
      ],
      "name": "isOperator",
      "outputs": [
        {
          "internalType": "bool",
          "name": "",
          "type": "bool"
        }
      ],
      "stateMutability": "view",
      "type": "function"
    },
    {
      "inputs": [],
      "name": "owner",
      "outputs": [
        {
          "internalType": "address",
          "name": "",
          "type": "address"
        }
      ],
      "stateMutability": "view",
      "type": "function"
    },
    {
      "inputs": [],
      "name": "pendingOwner",
      "outputs": [
        {
          "internalType": "address",
          "name": "",
          "type": "address"
        }
      ],
      "stateMutability": "view",
      "type": "function"
    },
    {
      "inputs": [
        {
          "internalType": "address",
          "name": "_operator",
          "type": "address"
        }
      ],
      "name": "removeOperator",
      "outputs": [],
      "stateMutability": "nonpayable",
      "type": "function"
    },
    {
      "inputs": [],
      "name": "renounceOwnership",
      "outputs": [],
      "stateMutability": "nonpayable",
      "type": "function"
    },
    {
      "inputs": [
        {
          "internalType": "bytes32",
          "name": "role",
          "type": "bytes32"
        },
        {
          "internalType": "address",
          "name": "account",
          "type": "address"
        }
      ],
      "name": "renounceRole",
      "outputs": [],
      "stateMutability": "nonpayable",
      "type": "function"
    },
    {
      "inputs": [
        {
          "internalType": "bytes32",
          "name": "role",
          "type": "bytes32"
        },
        {
          "internalType": "address",
          "name": "account",
          "type": "address"
        }
      ],
      "name": "revokeRole",
      "outputs": [],
      "stateMutability": "nonpayable",
      "type": "function"
    },
    {
      "inputs": [
        {
          "internalType": "address[]",
          "name": "assets",
          "type": "address[]"
        },
        {
          "internalType": "address[]",
          "name": "sources",
          "type": "address[]"
        }
      ],
      "name": "setAssetSources",
      "outputs": [],
      "stateMutability": "nonpayable",
      "type": "function"
    },
    {
      "inputs": [
        {
          "internalType": "bytes4",
          "name": "interfaceId",
          "type": "bytes4"
        }
      ],
      "name": "supportsInterface",
      "outputs": [
        {
          "internalType": "bool",
          "name": "",
          "type": "bool"
        }
      ],
      "stateMutability": "view",
      "type": "function"
    },
    {
      "inputs": [
        {
          "internalType": "address",
          "name": "newOwner",
          "type": "address"
        }
      ],
      "name": "transferOwnership",
      "outputs": [],
      "stateMutability": "nonpayable",
      "type": "function"
    }
  ],
  "transactionHash": "0x09e2dbb97f7b17d621883ee2520e43f5dc809e1ec49241c59ea4579eeccbda75",
  "args": [
    [
      "0xc46EE5F997e71075871a7703e4DE68C0EA228c83",
      "0x6E572751AaE03719Cd0b53B3551db323eA2e2050",
      "0xD218270a11a3a8E614Ebf8AE8FD3D269a52ac114",
      "0x6209f6CADe90416BecaAA48Ca693D2652ecc36D9",
      "0xf963aB230E0F2cF77dd6F834075D0cfa790BD443",
      "0x3740A76b06653bb3f00bD7EEF0A8E8aA32B2B6c5",
      "0x498C60F24E078efA5B34a952c5777aDa39C1bADB",
      "0x04c3dc90DD5d90De92Fa226697CF17c5875f63Af"
    ],
    [
      "0x9B3eF6A3D3b29C66A4dc2028BE0b0D0298EFD3f3",
      "0xC1D25F221ad7cAC9CeA4894220AdA9229F01B2BD",
      "0xD8004EE69CAa5506dbF714B70AA791C315C2D9fa",
      "0xF3587d0Da2a67002AF522E8F505D724ca226Af8d",
      "0xa81E3DcD2bB221A6F29eDA8d333372e4A5f58359",
      "0xAA89d944a7505E6302d5602CeC10D04F277d83e6",
      "0x0200de386949EC0B1c7BF7406696974908e5741c",
      "0x56abb8261200683bebd2Cd12cA8DEaAdcFfA11ae"
    ],
    "0x0000000000000000000000000000000000000000",
    "100000000"
  ],
  "numDeployments": 2,
  "solcInputHash": "6c02f9a7c070c92f779176734885c5e9",
  "bytecode": "0x60c06040523480156200001157600080fd5b5060405162001c1c38038062001c1c833981016040819052620000349162000362565b6200003f336200009c565b6200004b8484620000c6565b6001600160a01b038216608081905260a08290526040518281527fe27c4c1372396a3d15a9922f74f9dfc7c72b1ad6d63868470787249c356454c19060200160405180910390a25050505062000474565b600180546001600160a01b0319169055620000c38162000232602090811b62000b3117901c565b50565b8051825114604051806040016040528060028152602001611b9b60f11b81525090620001105760405162461bcd60e51b8152600401620001079190620003e6565b60405180910390fd5b5060005b82518110156200022d5781818151811062000133576200013362000436565b60200260200101516003600085848151811062000154576200015462000436565b60200260200101516001600160a01b03166001600160a01b0316815260200190815260200160002060006101000a8154816001600160a01b0302191690836001600160a01b03160217905550818181518110620001b557620001b562000436565b60200260200101516001600160a01b0316838281518110620001db57620001db62000436565b60200260200101516001600160a01b03167f22c5b7b2d8561d39f7f210b6b326a1aa69f15311163082308ac4877db6339dc160405160405180910390a38062000224816200044c565b91505062000114565b505050565b600080546001600160a01b038381166001600160a01b0319831681178455604051919092169283917f8be0079c531659141344cd1fd0a4f28419497f9722a3daafe3b4186f6b6457e09190a35050565b634e487b7160e01b600052604160045260246000fd5b80516001600160a01b0381168114620002b057600080fd5b919050565b600082601f830112620002c757600080fd5b815160206001600160401b0380831115620002e657620002e662000282565b8260051b604051601f19603f830116810181811084821117156200030e576200030e62000282565b6040529384528581018301938381019250878511156200032d57600080fd5b83870191505b848210156200035757620003478262000298565b8352918301919083019062000333565b979650505050505050565b600080600080608085870312156200037957600080fd5b84516001600160401b03808211156200039157600080fd5b6200039f88838901620002b5565b95506020870151915080821115620003b657600080fd5b50620003c587828801620002b5565b935050620003d66040860162000298565b6060959095015193969295505050565b600060208083528351808285015260005b818110156200041557858101830151858201604001528201620003f7565b506000604082860101526040601f19601f8301168501019250505092915050565b634e487b7160e01b600052603260045260246000fd5b6000600182016200046d57634e487b7160e01b600052601160045260246000fd5b5060010190565b60805160a051611774620004a86000396000818161023001526109be01526000818161039c015261099301526117746000f3fe608060405234801561001057600080fd5b50600436106101825760003560e01c80639870d7fe116100d8578063b3596f071161008c578063e30c397811610066578063e30c3978146103be578063f2fde38b146103dc578063f5b541a6146103ef57600080fd5b8063b3596f0714610371578063d547741f14610384578063e19f47001461039757600080fd5b8063a217fddf116100bd578063a217fddf14610343578063abfd53101461034b578063ac8a584a1461035e57600080fd5b80639870d7fe146103105780639d23d9f21461032357600080fd5b8063715018a61161013a5780638da5cb5b116101145780638da5cb5b1461025257806391d148541461029157806392bf2be0146102d757600080fd5b8063715018a61461021b57806379ba5097146102235780638c89b64f1461022b57600080fd5b80632f2ff15d1161016b5780632f2ff15d146101e057806336568abe146101f55780636d70f7ae1461020857600080fd5b806301ffc9a714610187578063248a9ca3146101af575b600080fd5b61019a610195366004611302565b610416565b60405190151581526020015b60405180910390f35b6101d26101bd366004611344565b60009081526002602052604090206001015490565b6040519081526020016101a6565b6101f36101ee366004611386565b6104af565b005b6101f3610203366004611386565b6104d9565b61019a6102163660046113b2565b610591565b6101f36105de565b6101f36105f2565b6101d27f000000000000000000000000000000000000000000000000000000000000000081565b60005473ffffffffffffffffffffffffffffffffffffffff165b60405173ffffffffffffffffffffffffffffffffffffffff90911681526020016101a6565b61019a61029f366004611386565b600091825260026020908152604080842073ffffffffffffffffffffffffffffffffffffffff93909316845291905290205460ff1690565b61026c6102e53660046113b2565b73ffffffffffffffffffffffffffffffffffffffff9081166000908152600360205260409020541690565b6101f361031e3660046113b2565b6106a7565b610336610331366004611419565b61075c565b6040516101a6919061145b565b6101d2600081565b6101f361035936600461149f565b610811565b6101f361036c3660046113b2565b6108af565b6101d261037f3660046113b2565b610964565b6101f3610392366004611386565b610a5c565b61026c7f000000000000000000000000000000000000000000000000000000000000000081565b60015473ffffffffffffffffffffffffffffffffffffffff1661026c565b6101f36103ea3660046113b2565b610a81565b6101d27f97667070c54ef182b0f5858b034beac1b6f3089aa2d3188bb1e8929f4fa9b92981565b60007fffffffff0000000000000000000000000000000000000000000000000000000082167f7965db0b0000000000000000000000000000000000000000000000000000000014806104a957507f01ffc9a7000000000000000000000000000000000000000000000000000000007fffffffff000000000000000000000000000000000000000000000000000000008316145b92915050565b6000828152600260205260409020600101546104ca81610ba6565b6104d48383610bb0565b505050565b73ffffffffffffffffffffffffffffffffffffffff81163314610583576040517f08c379a000000000000000000000000000000000000000000000000000000000815260206004820152602f60248201527f416363657373436f6e74726f6c3a2063616e206f6e6c792072656e6f756e636560448201527f20726f6c657320666f722073656c66000000000000000000000000000000000060648201526084015b60405180910390fd5b61058d8282610ca4565b5050565b73ffffffffffffffffffffffffffffffffffffffff811660009081527f6bc781d8c7f9885ebbb3cefbc18932c491038e2ae5c5b56447891e0bd98ea163602052604081205460ff166104a9565b6105e6610d5f565b6105f06000610de0565b565b600154339073ffffffffffffffffffffffffffffffffffffffff16811461069b576040517f08c379a000000000000000000000000000000000000000000000000000000000815260206004820152602960248201527f4f776e61626c6532537465703a2063616c6c6572206973206e6f74207468652060448201527f6e6577206f776e65720000000000000000000000000000000000000000000000606482015260840161057a565b6106a481610de0565b50565b6106af610d5f565b60408051808201909152600281527f3737000000000000000000000000000000000000000000000000000000000000602082015273ffffffffffffffffffffffffffffffffffffffff8216610731576040517f08c379a000000000000000000000000000000000000000000000000000000000815260040161057a919061152f565b506106a47f97667070c54ef182b0f5858b034beac1b6f3089aa2d3188bb1e8929f4fa9b92982610bb0565b606060008267ffffffffffffffff81111561077957610779611580565b6040519080825280602002602001820160405280156107a2578160200160208202803683370190505b50905060005b83811015610809576107da8585838181106107c5576107c56115af565b905060200201602081019061037f91906113b2565b8282815181106107ec576107ec6115af565b6020908102919091010152806108018161160d565b9150506107a8565b509392505050565b7f97667070c54ef182b0f5858b034beac1b6f3089aa2d3188bb1e8929f4fa9b92961083b81610ba6565b6108a885858080602002602001604051908101604052809392919081815260200183836020028082843760009201919091525050604080516020808902828101820190935288825290935088925087918291850190849080828437600092019190915250610e1192505050565b5050505050565b6108b7610d5f565b60408051808201909152600281527f3737000000000000000000000000000000000000000000000000000000000000602082015273ffffffffffffffffffffffffffffffffffffffff8216610939576040517f08c379a000000000000000000000000000000000000000000000000000000000815260040161057a919061152f565b506106a47f97667070c54ef182b0f5858b034beac1b6f3089aa2d3188bb1e8929f4fa9b92982610ca4565b73ffffffffffffffffffffffffffffffffffffffff8082166000818152600360205260408120549092908116917f000000000000000000000000000000000000000000000000000000000000000090911690036109e357507f000000000000000000000000000000000000000000000000000000000000000092915050565b60008173ffffffffffffffffffffffffffffffffffffffff166350d25bcd6040518163ffffffff1660e01b8152600401602060405180830381865afa158015610a30573d6000803e3d6000fd5b505050506040513d601f19601f82011682018060405250810190610a549190611645565b949350505050565b600082815260026020526040902060010154610a7781610ba6565b6104d48383610ca4565b610a89610d5f565b6001805473ffffffffffffffffffffffffffffffffffffffff83167fffffffffffffffffffffffff00000000000000000000000000000000000000009091168117909155610aec60005473ffffffffffffffffffffffffffffffffffffffff1690565b73ffffffffffffffffffffffffffffffffffffffff167f38d16b8cac22d99fc7c124b9cd0de2d3fa1faef420bfe791d8c362d765e2270060405160405180910390a350565b6000805473ffffffffffffffffffffffffffffffffffffffff8381167fffffffffffffffffffffffff0000000000000000000000000000000000000000831681178455604051919092169283917f8be0079c531659141344cd1fd0a4f28419497f9722a3daafe3b4186f6b6457e09190a35050565b6106a48133610fdf565b600082815260026020908152604080832073ffffffffffffffffffffffffffffffffffffffff8516845290915290205460ff1661058d57600082815260026020908152604080832073ffffffffffffffffffffffffffffffffffffffff85168452909152902080547fffffffffffffffffffffffffffffffffffffffffffffffffffffffffffffff00166001179055610c463390565b73ffffffffffffffffffffffffffffffffffffffff168173ffffffffffffffffffffffffffffffffffffffff16837f2f8788117e7eff1d82e926ec794901d17c78024a50270940304540a733656f0d60405160405180910390a45050565b600082815260026020908152604080832073ffffffffffffffffffffffffffffffffffffffff8516845290915290205460ff161561058d57600082815260026020908152604080832073ffffffffffffffffffffffffffffffffffffffff8516808552925280832080547fffffffffffffffffffffffffffffffffffffffffffffffffffffffffffffff0016905551339285917ff6391f5c32d9c69d2a47ea670b442974b53935d1edc7fd64eb21e047a839171b9190a45050565b60005473ffffffffffffffffffffffffffffffffffffffff1633146105f0576040517f08c379a000000000000000000000000000000000000000000000000000000000815260206004820181905260248201527f4f776e61626c653a2063616c6c6572206973206e6f7420746865206f776e6572604482015260640161057a565b600180547fffffffffffffffffffffffff00000000000000000000000000000000000000001690556106a481610b31565b80518251146040518060400160405280600281526020017f373600000000000000000000000000000000000000000000000000000000000081525090610e84576040517f08c379a000000000000000000000000000000000000000000000000000000000815260040161057a919061152f565b5060005b82518110156104d457818181518110610ea357610ea36115af565b602002602001015160036000858481518110610ec157610ec16115af565b602002602001015173ffffffffffffffffffffffffffffffffffffffff1673ffffffffffffffffffffffffffffffffffffffff16815260200190815260200160002060006101000a81548173ffffffffffffffffffffffffffffffffffffffff021916908373ffffffffffffffffffffffffffffffffffffffff160217905550818181518110610f5357610f536115af565b602002602001015173ffffffffffffffffffffffffffffffffffffffff16838281518110610f8357610f836115af565b602002602001015173ffffffffffffffffffffffffffffffffffffffff167f22c5b7b2d8561d39f7f210b6b326a1aa69f15311163082308ac4877db6339dc160405160405180910390a380610fd78161160d565b915050610e88565b600082815260026020908152604080832073ffffffffffffffffffffffffffffffffffffffff8516845290915290205460ff1661058d5761101f81611099565b61102a8360206110b8565b60405160200161103b92919061165e565b604080517fffffffffffffffffffffffffffffffffffffffffffffffffffffffffffffffe0818403018152908290527f08c379a000000000000000000000000000000000000000000000000000000000825261057a9160040161152f565b60606104a973ffffffffffffffffffffffffffffffffffffffff831660145b606060006110c78360026116df565b6110d29060026116f6565b67ffffffffffffffff8111156110ea576110ea611580565b6040519080825280601f01601f191660200182016040528015611114576020820181803683370190505b5090507f30000000000000000000000000000000000000000000000000000000000000008160008151811061114b5761114b6115af565b60200101907effffffffffffffffffffffffffffffffffffffffffffffffffffffffffffff1916908160001a9053507f7800000000000000000000000000000000000000000000000000000000000000816001815181106111ae576111ae6115af565b60200101907effffffffffffffffffffffffffffffffffffffffffffffffffffffffffffff1916908160001a90535060006111ea8460026116df565b6111f59060016116f6565b90505b6001811115611292577f303132333435363738396162636465660000000000000000000000000000000085600f1660108110611236576112366115af565b1a60f81b82828151811061124c5761124c6115af565b60200101907effffffffffffffffffffffffffffffffffffffffffffffffffffffffffffff1916908160001a90535060049490941c9361128b81611709565b90506111f8565b5083156112fb576040517f08c379a000000000000000000000000000000000000000000000000000000000815260206004820181905260248201527f537472696e67733a20686578206c656e67746820696e73756666696369656e74604482015260640161057a565b9392505050565b60006020828403121561131457600080fd5b81357fffffffff00000000000000000000000000000000000000000000000000000000811681146112fb57600080fd5b60006020828403121561135657600080fd5b5035919050565b803573ffffffffffffffffffffffffffffffffffffffff8116811461138157600080fd5b919050565b6000806040838503121561139957600080fd5b823591506113a96020840161135d565b90509250929050565b6000602082840312156113c457600080fd5b6112fb8261135d565b60008083601f8401126113df57600080fd5b50813567ffffffffffffffff8111156113f757600080fd5b6020830191508360208260051b850101111561141257600080fd5b9250929050565b6000806020838503121561142c57600080fd5b823567ffffffffffffffff81111561144357600080fd5b61144f858286016113cd565b90969095509350505050565b6020808252825182820181905260009190848201906040850190845b8181101561149357835183529284019291840191600101611477565b50909695505050505050565b600080600080604085870312156114b557600080fd5b843567ffffffffffffffff808211156114cd57600080fd5b6114d9888389016113cd565b909650945060208701359150808211156114f257600080fd5b506114ff878288016113cd565b95989497509550505050565b60005b8381101561152657818101518382015260200161150e565b50506000910152565b602081526000825180602084015261154e81604085016020870161150b565b601f017fffffffffffffffffffffffffffffffffffffffffffffffffffffffffffffffe0169190910160400192915050565b7f4e487b7100000000000000000000000000000000000000000000000000000000600052604160045260246000fd5b7f4e487b7100000000000000000000000000000000000000000000000000000000600052603260045260246000fd5b7f4e487b7100000000000000000000000000000000000000000000000000000000600052601160045260246000fd5b60007fffffffffffffffffffffffffffffffffffffffffffffffffffffffffffffffff820361163e5761163e6115de565b5060010190565b60006020828403121561165757600080fd5b5051919050565b7f416363657373436f6e74726f6c3a206163636f756e742000000000000000000081526000835161169681601785016020880161150b565b7f206973206d697373696e6720726f6c652000000000000000000000000000000060179184019182015283516116d381602884016020880161150b565b01602801949350505050565b80820281158282048414176104a9576104a96115de565b808201808211156104a9576104a96115de565b600081611718576117186115de565b507fffffffffffffffffffffffffffffffffffffffffffffffffffffffffffffffff019056fea26469706673582212205674fd1be9b3a2645efb92d7464609f761c105222f436de36ba29fe71ec45c8264736f6c63430008110033",
  "devdoc": {
    "author": "Hope",
    "kind": "dev",
    "methods": {
      "acceptOwnership()": {
        "details": "The new owner accepts the ownership transfer."
      },
      "constructor": {
        "params": {
          "assets": "The addresses of the assets",
          "baseCurrency": "The base currency used for the price quotes. If USD is used, base currency is 0x0",
          "baseCurrencyUnit": "The unit of the base currency",
          "sources": "The address of the source of each asset"
        }
      },
      "getAssetPrice(address)": {
        "params": {
          "asset": "The address of the asset"
        },
        "returns": {
          "_0": "The price of the asset"
        }
      },
      "getAssetsPrices(address[])": {
        "params": {
          "assets": "The list of assets addresses"
        },
        "returns": {
          "_0": "The prices of the given assets"
        }
      },
      "getRoleAdmin(bytes32)": {
        "details": "Returns the admin role that controls `role`. See {grantRole} and {revokeRole}. To change a role's admin, use {_setRoleAdmin}."
      },
      "getSourceOfAsset(address)": {
        "params": {
          "asset": "The address of the asset"
        },
        "returns": {
          "_0": "The address of the source"
        }
      },
      "grantRole(bytes32,address)": {
        "details": "Grants `role` to `account`. If `account` had not been already granted `role`, emits a {RoleGranted} event. Requirements: - the caller must have ``role``'s admin role. May emit a {RoleGranted} event."
      },
      "hasRole(bytes32,address)": {
        "details": "Returns `true` if `account` has been granted `role`."
      },
      "owner()": {
        "details": "Returns the address of the current owner."
      },
      "pendingOwner()": {
        "details": "Returns the address of the pending owner."
      },
      "renounceOwnership()": {
        "details": "Leaves the contract without owner. It will not be possible to call `onlyOwner` functions anymore. Can only be called by the current owner. NOTE: Renouncing ownership will leave the contract without an owner, thereby removing any functionality that is only available to the owner."
      },
      "renounceRole(bytes32,address)": {
        "details": "Revokes `role` from the calling account. Roles are often managed via {grantRole} and {revokeRole}: this function's purpose is to provide a mechanism for accounts to lose their privileges if they are compromised (such as when a trusted device is misplaced). If the calling account had been revoked `role`, emits a {RoleRevoked} event. Requirements: - the caller must be `account`. May emit a {RoleRevoked} event."
      },
      "revokeRole(bytes32,address)": {
        "details": "Revokes `role` from `account`. If `account` had been granted `role`, emits a {RoleRevoked} event. Requirements: - the caller must have ``role``'s admin role. May emit a {RoleRevoked} event."
      },
      "setAssetSources(address[],address[])": {
        "params": {
          "assets": "The addresses of the assets",
          "sources": "The addresses of the price sources"
        }
      },
      "supportsInterface(bytes4)": {
        "details": "See {IERC165-supportsInterface}."
      },
      "transferOwnership(address)": {
        "details": "Starts the ownership transfer of the contract to a new account. Replaces the pending transfer if there is one. Can only be called by the current owner."
      }
    },
    "stateVariables": {
      "BASE_CURRENCY": {
        "details": "Address 0x0 is reserved for USD as base currency.",
        "return": "Returns the base currency address.",
        "returns": {
          "_0": "Returns the base currency address."
        }
      },
      "BASE_CURRENCY_UNIT": {
        "details": "1 ether for ETH, 1e8 for USD.",
        "return": "Returns the base currency unit.",
        "returns": {
          "_0": "Returns the base currency unit."
        }
      }
    },
    "title": "HopeFallbackOracle",
    "version": 1
  },
  "userdoc": {
    "kind": "user",
    "methods": {
      "BASE_CURRENCY()": {
        "notice": "Returns the base currency address"
      },
      "BASE_CURRENCY_UNIT()": {
        "notice": "Returns the base currency unit"
      },
      "constructor": {
        "notice": "Constructor"
      },
      "getAssetPrice(address)": {
        "notice": "Returns the asset price in the base currency"
      },
      "getAssetsPrices(address[])": {
        "notice": "Returns a list of prices from a list of assets addresses"
      },
      "getSourceOfAsset(address)": {
        "notice": "Returns the address of the source for an asset address"
      },
      "setAssetSources(address[],address[])": {
        "notice": "Sets or replaces price sources of assets"
      }
    },
    "notice": "Contract to get asset prices, manage price sources - Use of Chainlink Aggregators as first source of price - Owned by the Hope governance",
    "version": 1
  },
  "storageLayout": {
    "storage": [
      {
        "astId": 4092,
        "contract": "contracts/HopeFallbackOracle.sol:HopeFallbackOracle",
        "label": "_owner",
        "offset": 0,
        "slot": "0",
        "type": "t_address"
      },
      {
        "astId": 4205,
        "contract": "contracts/HopeFallbackOracle.sol:HopeFallbackOracle",
        "label": "_pendingOwner",
        "offset": 0,
        "slot": "1",
        "type": "t_address"
      },
      {
        "astId": 2148,
        "contract": "contracts/HopeFallbackOracle.sol:HopeFallbackOracle",
        "label": "_roles",
        "offset": 0,
        "slot": "2",
        "type": "t_mapping(t_bytes32,t_struct(RoleData)2143_storage)"
      },
      {
        "astId": 974,
        "contract": "contracts/HopeFallbackOracle.sol:HopeFallbackOracle",
        "label": "assetsSources",
        "offset": 0,
        "slot": "3",
        "type": "t_mapping(t_address,t_contract(AggregatorInterface)2049)"
      }
    ],
    "types": {
      "t_address": {
        "encoding": "inplace",
        "label": "address",
        "numberOfBytes": "20"
      },
      "t_bool": {
        "encoding": "inplace",
        "label": "bool",
        "numberOfBytes": "1"
      },
      "t_bytes32": {
        "encoding": "inplace",
        "label": "bytes32",
        "numberOfBytes": "32"
      },
      "t_contract(AggregatorInterface)2049": {
        "encoding": "inplace",
        "label": "contract AggregatorInterface",
        "numberOfBytes": "20"
      },
      "t_mapping(t_address,t_bool)": {
        "encoding": "mapping",
        "key": "t_address",
        "label": "mapping(address => bool)",
        "numberOfBytes": "32",
        "value": "t_bool"
      },
      "t_mapping(t_address,t_contract(AggregatorInterface)2049)": {
        "encoding": "mapping",
        "key": "t_address",
        "label": "mapping(address => contract AggregatorInterface)",
        "numberOfBytes": "32",
        "value": "t_contract(AggregatorInterface)2049"
      },
      "t_mapping(t_bytes32,t_struct(RoleData)2143_storage)": {
        "encoding": "mapping",
        "key": "t_bytes32",
        "label": "mapping(bytes32 => struct AccessControl.RoleData)",
        "numberOfBytes": "32",
        "value": "t_struct(RoleData)2143_storage"
      },
      "t_struct(RoleData)2143_storage": {
        "encoding": "inplace",
        "label": "struct AccessControl.RoleData",
        "members": [
          {
            "astId": 2140,
            "contract": "contracts/HopeFallbackOracle.sol:HopeFallbackOracle",
            "label": "members",
            "offset": 0,
            "slot": "0",
            "type": "t_mapping(t_address,t_bool)"
          },
          {
            "astId": 2142,
            "contract": "contracts/HopeFallbackOracle.sol:HopeFallbackOracle",
            "label": "adminRole",
            "offset": 0,
            "slot": "1",
            "type": "t_bytes32"
          }
        ],
        "numberOfBytes": "64"
      }
    }
  }
}