{
  "address": "0xC117f7a19DB9dABb1eE4E5CEd05fb042b4c54bBc",
  "abi": [
    {
      "inputs": [
        {
          "internalType": "address",
          "name": "_priceFeed",
          "type": "address"
        },
        {
          "internalType": "address",
          "name": "_aggregator",
          "type": "address"
        },
        {
          "internalType": "uint256",
          "name": "_heartbeat",
          "type": "uint256"
        },
        {
          "internalType": "uint256",
          "name": "_deviationThreshold",
          "type": "uint256"
        }
      ],
      "stateMutability": "nonpayable",
      "type": "constructor"
    },
    {
      "anonymous": false,
      "inputs": [
        {
          "indexed": false,
          "internalType": "address",
          "name": "newAggregator",
          "type": "address"
        }
      ],
      "name": "AggregatorUpdated",
      "type": "event"
    },
    {
      "anonymous": false,
      "inputs": [
        {
          "indexed": false,
          "internalType": "uint256",
          "name": "newDeviationThreshold",
          "type": "uint256"
        }
      ],
      "name": "DeviationThresholdUpdated",
      "type": "event"
    },
    {
      "anonymous": false,
      "inputs": [
        {
          "indexed": false,
          "internalType": "address",
          "name": "newPriceFeed",
          "type": "address"
        }
      ],
      "name": "HOPEPriceFeedUpdated",
      "type": "event"
    },
    {
      "anonymous": false,
      "inputs": [
        {
          "indexed": false,
          "internalType": "uint256",
          "name": "newHeartbeat",
          "type": "uint256"
        }
      ],
      "name": "HeartbeatUpdated",
      "type": "event"
    },
    {
      "anonymous": false,
      "inputs": [
        {
          "indexed": true,
          "internalType": "address",
          "name": "previousOwner",
          "type": "address"
        },
        {
          "indexed": true,
          "internalType": "address",
          "name": "newOwner",
          "type": "address"
        }
      ],
      "name": "OwnershipTransferStarted",
      "type": "event"
    },
    {
      "anonymous": false,
      "inputs": [
        {
          "indexed": true,
          "internalType": "address",
          "name": "previousOwner",
          "type": "address"
        },
        {
          "indexed": true,
          "internalType": "address",
          "name": "newOwner",
          "type": "address"
        }
      ],
      "name": "OwnershipTransferred",
      "type": "event"
    },
    {
      "anonymous": false,
      "inputs": [
        {
          "indexed": false,
          "internalType": "uint256",
          "name": "price",
          "type": "uint256"
        },
        {
          "indexed": false,
          "internalType": "uint256",
          "name": "timestamp",
          "type": "uint256"
        }
      ],
      "name": "PriceUpdated",
      "type": "event"
    },
    {
      "anonymous": false,
      "inputs": [
        {
          "indexed": true,
          "internalType": "bytes32",
          "name": "role",
          "type": "bytes32"
        },
        {
          "indexed": true,
          "internalType": "bytes32",
          "name": "previousAdminRole",
          "type": "bytes32"
        },
        {
          "indexed": true,
          "internalType": "bytes32",
          "name": "newAdminRole",
          "type": "bytes32"
        }
      ],
      "name": "RoleAdminChanged",
      "type": "event"
    },
    {
      "anonymous": false,
      "inputs": [
        {
          "indexed": true,
          "internalType": "bytes32",
          "name": "role",
          "type": "bytes32"
        },
        {
          "indexed": true,
          "internalType": "address",
          "name": "account",
          "type": "address"
        },
        {
          "indexed": true,
          "internalType": "address",
          "name": "sender",
          "type": "address"
        }
      ],
      "name": "RoleGranted",
      "type": "event"
    },
    {
      "anonymous": false,
      "inputs": [
        {
          "indexed": true,
          "internalType": "bytes32",
          "name": "role",
          "type": "bytes32"
        },
        {
          "indexed": true,
          "internalType": "address",
          "name": "account",
          "type": "address"
        },
        {
          "indexed": true,
          "internalType": "address",
          "name": "sender",
          "type": "address"
        }
      ],
      "name": "RoleRevoked",
      "type": "event"
    },
    {
      "inputs": [],
      "name": "DEFAULT_ADMIN_ROLE",
      "outputs": [
        {
          "internalType": "bytes32",
          "name": "",
          "type": "bytes32"
        }
      ],
      "stateMutability": "view",
      "type": "function"
    },
    {
      "inputs": [],
      "name": "OPERATOR_ROLE",
      "outputs": [
        {
          "internalType": "bytes32",
          "name": "",
          "type": "bytes32"
        }
      ],
      "stateMutability": "view",
      "type": "function"
    },
    {
      "inputs": [],
      "name": "acceptOwnership",
      "outputs": [],
      "stateMutability": "nonpayable",
      "type": "function"
    },
    {
      "inputs": [
        {
          "internalType": "address",
          "name": "_operator",
          "type": "address"
        }
      ],
      "name": "addOperator",
      "outputs": [],
      "stateMutability": "nonpayable",
      "type": "function"
    },
    {
      "inputs": [],
      "name": "aggregator",
      "outputs": [
        {
          "internalType": "address",
          "name": "",
          "type": "address"
        }
      ],
      "stateMutability": "view",
      "type": "function"
    },
    {
      "inputs": [
        {
          "internalType": "bytes",
          "name": "",
          "type": "bytes"
        }
      ],
      "name": "checkUpkeep",
      "outputs": [
        {
          "internalType": "bool",
          "name": "upkeepNeeded",
          "type": "bool"
        },
        {
          "internalType": "bytes",
          "name": "",
          "type": "bytes"
        }
      ],
      "stateMutability": "view",
      "type": "function"
    },
    {
      "inputs": [],
      "name": "deviationThreshold",
      "outputs": [
        {
          "internalType": "uint256",
          "name": "",
          "type": "uint256"
        }
      ],
      "stateMutability": "view",
      "type": "function"
    },
    {
      "inputs": [
        {
          "internalType": "bytes32",
          "name": "role",
          "type": "bytes32"
        }
      ],
      "name": "getRoleAdmin",
      "outputs": [
        {
          "internalType": "bytes32",
          "name": "",
          "type": "bytes32"
        }
      ],
      "stateMutability": "view",
      "type": "function"
    },
    {
      "inputs": [
        {
          "internalType": "bytes32",
          "name": "role",
          "type": "bytes32"
        },
        {
          "internalType": "address",
          "name": "account",
          "type": "address"
        }
      ],
      "name": "grantRole",
      "outputs": [],
      "stateMutability": "nonpayable",
      "type": "function"
    },
    {
      "inputs": [
        {
          "internalType": "bytes32",
          "name": "role",
          "type": "bytes32"
        },
        {
          "internalType": "address",
          "name": "account",
          "type": "address"
        }
      ],
      "name": "hasRole",
      "outputs": [
        {
          "internalType": "bool",
          "name": "",
          "type": "bool"
        }
      ],
      "stateMutability": "view",
      "type": "function"
    },
    {
      "inputs": [],
      "name": "heartbeat",
      "outputs": [
        {
          "internalType": "uint256",
          "name": "",
          "type": "uint256"
        }
      ],
      "stateMutability": "view",
      "type": "function"
    },
    {
      "inputs": [
        {
          "internalType": "address",
          "name": "_operator",
          "type": "address"
        }
      ],
      "name": "isOperator",
      "outputs": [
        {
          "internalType": "bool",
          "name": "",
          "type": "bool"
        }
      ],
      "stateMutability": "view",
      "type": "function"
    },
    {
      "inputs": [],
      "name": "lastPrice",
      "outputs": [
        {
          "internalType": "uint256",
          "name": "",
          "type": "uint256"
        }
      ],
      "stateMutability": "view",
      "type": "function"
    },
    {
      "inputs": [],
      "name": "lastTimestamp",
      "outputs": [
        {
          "internalType": "uint256",
          "name": "",
          "type": "uint256"
        }
      ],
      "stateMutability": "view",
      "type": "function"
    },
    {
      "inputs": [],
      "name": "owner",
      "outputs": [
        {
          "internalType": "address",
          "name": "",
          "type": "address"
        }
      ],
      "stateMutability": "view",
      "type": "function"
    },
    {
      "inputs": [],
      "name": "pendingOwner",
      "outputs": [
        {
          "internalType": "address",
          "name": "",
          "type": "address"
        }
      ],
      "stateMutability": "view",
      "type": "function"
    },
    {
      "inputs": [
        {
          "internalType": "bytes",
          "name": "",
          "type": "bytes"
        }
      ],
      "name": "performUpkeep",
      "outputs": [],
      "stateMutability": "nonpayable",
      "type": "function"
    },
    {
      "inputs": [],
      "name": "priceFeed",
      "outputs": [
        {
          "internalType": "address",
          "name": "",
          "type": "address"
        }
      ],
      "stateMutability": "view",
      "type": "function"
    },
    {
      "inputs": [
        {
          "internalType": "address",
          "name": "_operator",
          "type": "address"
        }
      ],
      "name": "removeOperator",
      "outputs": [],
      "stateMutability": "nonpayable",
      "type": "function"
    },
    {
      "inputs": [],
      "name": "renounceOwnership",
      "outputs": [],
      "stateMutability": "nonpayable",
      "type": "function"
    },
    {
      "inputs": [
        {
          "internalType": "bytes32",
          "name": "role",
          "type": "bytes32"
        },
        {
          "internalType": "address",
          "name": "account",
          "type": "address"
        }
      ],
      "name": "renounceRole",
      "outputs": [],
      "stateMutability": "nonpayable",
      "type": "function"
    },
    {
      "inputs": [
        {
          "internalType": "bytes32",
          "name": "role",
          "type": "bytes32"
        },
        {
          "internalType": "address",
          "name": "account",
          "type": "address"
        }
      ],
      "name": "revokeRole",
      "outputs": [],
      "stateMutability": "nonpayable",
      "type": "function"
    },
    {
      "inputs": [
        {
          "internalType": "address",
          "name": "_aggregator",
          "type": "address"
        }
      ],
      "name": "setAggregator",
      "outputs": [],
      "stateMutability": "nonpayable",
      "type": "function"
    },
    {
      "inputs": [
        {
          "internalType": "uint256",
          "name": "_deviationThreshold",
          "type": "uint256"
        }
      ],
      "name": "setDeviationThreshold",
      "outputs": [],
      "stateMutability": "nonpayable",
      "type": "function"
    },
    {
      "inputs": [
        {
          "internalType": "address",
          "name": "_priceFeed",
          "type": "address"
        }
      ],
      "name": "setHOPEPriceFeed",
      "outputs": [],
      "stateMutability": "nonpayable",
      "type": "function"
    },
    {
      "inputs": [
        {
          "internalType": "uint256",
          "name": "_heartbeat",
          "type": "uint256"
        }
      ],
      "name": "setHeartbeat",
      "outputs": [],
      "stateMutability": "nonpayable",
      "type": "function"
    },
    {
      "inputs": [
        {
          "internalType": "bytes4",
          "name": "interfaceId",
          "type": "bytes4"
        }
      ],
      "name": "supportsInterface",
      "outputs": [
        {
          "internalType": "bool",
          "name": "",
          "type": "bool"
        }
      ],
      "stateMutability": "view",
      "type": "function"
    },
    {
      "inputs": [
        {
          "internalType": "address",
          "name": "newOwner",
          "type": "address"
        }
      ],
      "name": "transferOwnership",
      "outputs": [],
      "stateMutability": "nonpayable",
      "type": "function"
    }
  ],
  "transactionHash": "0x10d46ab3c5137a17558c3f45fa9ddcc70a37383bd55846ad74ab3143ae923e86",
  "args": [
    "0xC09bAbe270c7860C2E58959dCE6Dd9aDECde7208",
    "0x99f4E627093D6Bba806ea18284fB5C5EA1De6753",
    43200,
    50
  ],
  "numDeployments": 1,
  "solcInputHash": "a02306f0ababf2fcfe58efec8c8dd921",
  "bytecode": "0x60806040523480156200001157600080fd5b5060405162001b1838038062001b1883398101604081905262000034916200021c565b6200003f3362000075565b6200004a846200009f565b6200005583620000f4565b620000608262000143565b6200006b8162000179565b5050505062000264565b600180546001600160a01b03191690556200009c81620001af602090811b62000b8b17901c565b50565b600380546001600160a01b0319166001600160a01b0383169081179091556040519081527f81d6cafd5ac0f5622e7437d9f7944c09c8da68fa4749117f58310f76e1aa96b8906020015b60405180910390a150565b600480546001600160a01b0319166001600160a01b0383169081179091556040519081527f602cec4b1583b07d071161da5eb9589444d2459201e2fab7753dc941e9351c2190602001620000e9565b60058190556040518181527fc2178046992f7ede7649071430a5471a38fa34dc920c308b50d50c3271519b6d90602001620000e9565b60068190556040518181527ffc6a7902b31c6ecdb0c5861232c559ad5a0836a4afdfd978472718132e48778190602001620000e9565b600080546001600160a01b038381166001600160a01b0319831681178455604051919092169283917f8be0079c531659141344cd1fd0a4f28419497f9722a3daafe3b4186f6b6457e09190a35050565b80516001600160a01b03811681146200021757600080fd5b919050565b600080600080608085870312156200023357600080fd5b6200023e85620001ff565b93506200024e60208601620001ff565b6040860151606090960151949790965092505050565b6118a480620002746000396000f3fe608060405234801561001057600080fd5b50600436106101c45760003560e01c8063741bef1a116100f9578063d29dba9111610097578063e30c397811610071578063e30c397814610408578063f2fde38b14610426578063f5b541a614610439578063f9120af61461046057600080fd5b8063d29dba91146103d9578063d547741f146103ec578063d94ad837146103ff57600080fd5b806391d14854116100d357806391d14854146103655780639870d7fe146103ab578063a217fddf146103be578063ac8a584a146103c657600080fd5b8063741bef1a1461031f57806379ba50971461033f5780638da5cb5b1461034757600080fd5b806336568abe1161016657806353a15edc1161014057806353a15edc146102d05780636d70f7ae146102e35780636e04ff0d146102f6578063715018a61461031757600080fd5b806336568abe146102a15780633defb962146102b45780634585e33b146102bd57600080fd5b8063245a7bfc116101a2578063245a7bfc14610211578063248a9ca3146102565780632754aae1146102795780632f2ff15d1461028e57600080fd5b806301ffc9a7146101c9578063053f14da146101f157806319d8ac6114610208575b600080fd5b6101dc6101d7366004611409565b610473565b60405190151581526020015b60405180910390f35b6101fa60075481565b6040519081526020016101e8565b6101fa60085481565b6004546102319073ffffffffffffffffffffffffffffffffffffffff1681565b60405173ffffffffffffffffffffffffffffffffffffffff90911681526020016101e8565b6101fa61026436600461144b565b60009081526002602052604090206001015490565b61028c61028736600461148d565b61050c565b005b61028c61029c3660046114a8565b610543565b61028c6102af3660046114a8565b61056d565b6101fa60055481565b61028c6102cb366004611503565b610621565b61028c6102de36600461144b565b610786565b6101dc6102f136600461148d565b6107b9565b6103096103043660046115d2565b610806565b6040516101e89291906116b2565b61028c61081d565b6003546102319073ffffffffffffffffffffffffffffffffffffffff1681565b61028c610831565b60005473ffffffffffffffffffffffffffffffffffffffff16610231565b6101dc6103733660046114a8565b600091825260026020908152604080842073ffffffffffffffffffffffffffffffffffffffff93909316845291905290205460ff1690565b61028c6103b936600461148d565b6108e6565b6101fa600081565b61028c6103d436600461148d565b61099b565b61028c6103e736600461144b565b610a50565b61028c6103fa3660046114a8565b610a83565b6101fa60065481565b60015473ffffffffffffffffffffffffffffffffffffffff16610231565b61028c61043436600461148d565b610aa8565b6101fa7f97667070c54ef182b0f5858b034beac1b6f3089aa2d3188bb1e8929f4fa9b92981565b61028c61046e36600461148d565b610b58565b60007fffffffff0000000000000000000000000000000000000000000000000000000082167f7965db0b00000000000000000000000000000000000000000000000000000000148061050657507f01ffc9a7000000000000000000000000000000000000000000000000000000007fffffffff000000000000000000000000000000000000000000000000000000008316145b92915050565b7f97667070c54ef182b0f5858b034beac1b6f3089aa2d3188bb1e8929f4fa9b92961053681610c00565b61053f82610c0a565b5050565b60008281526002602052604090206001015461055e81610c00565b6105688383610c84565b505050565b73ffffffffffffffffffffffffffffffffffffffff81163314610617576040517f08c379a000000000000000000000000000000000000000000000000000000000815260206004820152602f60248201527f416363657373436f6e74726f6c3a2063616e206f6e6c792072656e6f756e636560448201527f20726f6c657320666f722073656c66000000000000000000000000000000000060648201526084015b60405180910390fd5b61053f8282610d78565b60008061062c610e33565b91509150806106bd576040517f08c379a000000000000000000000000000000000000000000000000000000000815260206004820152602160248201527f486f70654175746f6d6174696f6e3a2075706b656570206e6f74206e6565646560448201527f6400000000000000000000000000000000000000000000000000000000000000606482015260840161060e565b600782905542600855600480546040517f8733544300000000000000000000000000000000000000000000000000000000815291820184905273ffffffffffffffffffffffffffffffffffffffff1690638733544390602401600060405180830381600087803b15801561073057600080fd5b505af1158015610744573d6000803e3d6000fd5b5050604080518581524260208201527f945c1c4e99aa89f648fbfe3df471b916f719e16d960fcec0737d4d56bd696838935001905060405180910390a1505050565b7f97667070c54ef182b0f5858b034beac1b6f3089aa2d3188bb1e8929f4fa9b9296107b081610c00565b61053f82610ebe565b73ffffffffffffffffffffffffffffffffffffffff811660009081527f6bc781d8c7f9885ebbb3cefbc18932c491038e2ae5c5b56447891e0bd98ea163602052604081205460ff16610506565b60006060610812610e33565b959194509092505050565b610825610ef3565b61082f6000610f74565b565b600154339073ffffffffffffffffffffffffffffffffffffffff1681146108da576040517f08c379a000000000000000000000000000000000000000000000000000000000815260206004820152602960248201527f4f776e61626c6532537465703a2063616c6c6572206973206e6f74207468652060448201527f6e6577206f776e65720000000000000000000000000000000000000000000000606482015260840161060e565b6108e381610f74565b50565b6108ee610ef3565b60408051808201909152600281527f3737000000000000000000000000000000000000000000000000000000000000602082015273ffffffffffffffffffffffffffffffffffffffff8216610970576040517f08c379a000000000000000000000000000000000000000000000000000000000815260040161060e91906116d5565b506108e37f97667070c54ef182b0f5858b034beac1b6f3089aa2d3188bb1e8929f4fa9b92982610c84565b6109a3610ef3565b60408051808201909152600281527f3737000000000000000000000000000000000000000000000000000000000000602082015273ffffffffffffffffffffffffffffffffffffffff8216610a25576040517f08c379a000000000000000000000000000000000000000000000000000000000815260040161060e91906116d5565b506108e37f97667070c54ef182b0f5858b034beac1b6f3089aa2d3188bb1e8929f4fa9b92982610d78565b7f97667070c54ef182b0f5858b034beac1b6f3089aa2d3188bb1e8929f4fa9b929610a7a81610c00565b61053f82610fa5565b600082815260026020526040902060010154610a9e81610c00565b6105688383610d78565b610ab0610ef3565b6001805473ffffffffffffffffffffffffffffffffffffffff83167fffffffffffffffffffffffff00000000000000000000000000000000000000009091168117909155610b1360005473ffffffffffffffffffffffffffffffffffffffff1690565b73ffffffffffffffffffffffffffffffffffffffff167f38d16b8cac22d99fc7c124b9cd0de2d3fa1faef420bfe791d8c362d765e2270060405160405180910390a350565b7f97667070c54ef182b0f5858b034beac1b6f3089aa2d3188bb1e8929f4fa9b929610b8281610c00565b61053f82610fda565b6000805473ffffffffffffffffffffffffffffffffffffffff8381167fffffffffffffffffffffffff0000000000000000000000000000000000000000831681178455604051919092169283917f8be0079c531659141344cd1fd0a4f28419497f9722a3daafe3b4186f6b6457e09190a35050565b6108e3813361104d565b600380547fffffffffffffffffffffffff00000000000000000000000000000000000000001673ffffffffffffffffffffffffffffffffffffffff83169081179091556040519081527f81d6cafd5ac0f5622e7437d9f7944c09c8da68fa4749117f58310f76e1aa96b8906020015b60405180910390a150565b600082815260026020908152604080832073ffffffffffffffffffffffffffffffffffffffff8516845290915290205460ff1661053f57600082815260026020908152604080832073ffffffffffffffffffffffffffffffffffffffff85168452909152902080547fffffffffffffffffffffffffffffffffffffffffffffffffffffffffffffff00166001179055610d1a3390565b73ffffffffffffffffffffffffffffffffffffffff168173ffffffffffffffffffffffffffffffffffffffff16837f2f8788117e7eff1d82e926ec794901d17c78024a50270940304540a733656f0d60405160405180910390a45050565b600082815260026020908152604080832073ffffffffffffffffffffffffffffffffffffffff8516845290915290205460ff161561053f57600082815260026020908152604080832073ffffffffffffffffffffffffffffffffffffffff8516808552925280832080547fffffffffffffffffffffffffffffffffffffffffffffffffffffffffffffff0016905551339285917ff6391f5c32d9c69d2a47ea670b442974b53935d1edc7fd64eb21e047a839171b9190a45050565b600080610e3e611107565b91506000821190506000818015610e5b5750600554600854420310155b91506007548310610e8c576127106007546006540281610e7d57610e7d6116e8565b04600754840310159050610eae565b6127106007546006540281610ea357610ea36116e8565b048360075403101590505b8180610eb75750805b9150509091565b60068190556040518181527ffc6a7902b31c6ecdb0c5861232c559ad5a0836a4afdfd978472718132e48778190602001610c79565b60005473ffffffffffffffffffffffffffffffffffffffff16331461082f576040517f08c379a000000000000000000000000000000000000000000000000000000000815260206004820181905260248201527f4f776e61626c653a2063616c6c6572206973206e6f7420746865206f776e6572604482015260640161060e565b600180547fffffffffffffffffffffffff00000000000000000000000000000000000000001690556108e381610b8b565b60058190556040518181527fc2178046992f7ede7649071430a5471a38fa34dc920c308b50d50c3271519b6d90602001610c79565b600480547fffffffffffffffffffffffff00000000000000000000000000000000000000001673ffffffffffffffffffffffffffffffffffffffff83169081179091556040519081527f602cec4b1583b07d071161da5eb9589444d2459201e2fab7753dc941e9351c2190602001610c79565b600082815260026020908152604080832073ffffffffffffffffffffffffffffffffffffffff8516845290915290205460ff1661053f5761108d816111a0565b6110988360206111bf565b6040516020016110a9929190611717565b604080517fffffffffffffffffffffffffffffffffffffffffffffffffffffffffffffffe0818403018152908290527f08c379a000000000000000000000000000000000000000000000000000000000825261060e916004016116d5565b600354604080517f50d25bcd000000000000000000000000000000000000000000000000000000008152905160009273ffffffffffffffffffffffffffffffffffffffff16916350d25bcd9160048083019260209291908290030181865afa158015611177573d6000803e3d6000fd5b505050506040513d601f19601f8201168201806040525081019061119b9190611798565b905090565b606061050673ffffffffffffffffffffffffffffffffffffffff831660145b606060006111ce8360026117e0565b6111d99060026117f7565b67ffffffffffffffff8111156111f1576111f16114d4565b6040519080825280601f01601f19166020018201604052801561121b576020820181803683370190505b5090507f3000000000000000000000000000000000000000000000000000000000000000816000815181106112525761125261180a565b60200101907effffffffffffffffffffffffffffffffffffffffffffffffffffffffffffff1916908160001a9053507f7800000000000000000000000000000000000000000000000000000000000000816001815181106112b5576112b561180a565b60200101907effffffffffffffffffffffffffffffffffffffffffffffffffffffffffffff1916908160001a90535060006112f18460026117e0565b6112fc9060016117f7565b90505b6001811115611399577f303132333435363738396162636465660000000000000000000000000000000085600f166010811061133d5761133d61180a565b1a60f81b8282815181106113535761135361180a565b60200101907effffffffffffffffffffffffffffffffffffffffffffffffffffffffffffff1916908160001a90535060049490941c9361139281611839565b90506112ff565b508315611402576040517f08c379a000000000000000000000000000000000000000000000000000000000815260206004820181905260248201527f537472696e67733a20686578206c656e67746820696e73756666696369656e74604482015260640161060e565b9392505050565b60006020828403121561141b57600080fd5b81357fffffffff000000000000000000000000000000000000000000000000000000008116811461140257600080fd5b60006020828403121561145d57600080fd5b5035919050565b803573ffffffffffffffffffffffffffffffffffffffff8116811461148857600080fd5b919050565b60006020828403121561149f57600080fd5b61140282611464565b600080604083850312156114bb57600080fd5b823591506114cb60208401611464565b90509250929050565b7f4e487b7100000000000000000000000000000000000000000000000000000000600052604160045260246000fd5b60006020828403121561151557600080fd5b813567ffffffffffffffff8082111561152d57600080fd5b818401915084601f83011261154157600080fd5b813581811115611553576115536114d4565b604051601f82017fffffffffffffffffffffffffffffffffffffffffffffffffffffffffffffffe0908116603f01168101908382118183101715611599576115996114d4565b816040528281528760208487010111156115b257600080fd5b826020860160208301376000928101602001929092525095945050505050565b600080602083850312156115e557600080fd5b823567ffffffffffffffff808211156115fd57600080fd5b818501915085601f83011261161157600080fd5b81358181111561162057600080fd5b86602082850101111561163257600080fd5b60209290920196919550909350505050565b60005b8381101561165f578181015183820152602001611647565b50506000910152565b60008151808452611680816020860160208601611644565b601f017fffffffffffffffffffffffffffffffffffffffffffffffffffffffffffffffe0169290920160200192915050565b82151581526040602082015260006116cd6040830184611668565b949350505050565b6020815260006114026020830184611668565b7f4e487b7100000000000000000000000000000000000000000000000000000000600052601260045260246000fd5b7f416363657373436f6e74726f6c3a206163636f756e742000000000000000000081526000835161174f816017850160208801611644565b7f206973206d697373696e6720726f6c6520000000000000000000000000000000601791840191820152835161178c816028840160208801611644565b01602801949350505050565b6000602082840312156117aa57600080fd5b5051919050565b7f4e487b7100000000000000000000000000000000000000000000000000000000600052601160045260246000fd5b8082028115828204841417610506576105066117b1565b80820180821115610506576105066117b1565b7f4e487b7100000000000000000000000000000000000000000000000000000000600052603260045260246000fd5b600081611848576118486117b1565b507fffffffffffffffffffffffffffffffffffffffffffffffffffffffffffffffff019056fea2646970667358221220f36eb65fa37152e61b564694e359053d541c6883441e6553a61f90f16f06ac6a64736f6c63430008110033",
  "devdoc": {
    "kind": "dev",
    "methods": {
      "acceptOwnership()": {
        "details": "The new owner accepts the ownership transfer."
      },
      "getRoleAdmin(bytes32)": {
        "details": "Returns the admin role that controls `role`. See {grantRole} and {revokeRole}. To change a role's admin, use {_setRoleAdmin}."
      },
      "grantRole(bytes32,address)": {
        "details": "Grants `role` to `account`. If `account` had not been already granted `role`, emits a {RoleGranted} event. Requirements: - the caller must have ``role``'s admin role. May emit a {RoleGranted} event."
      },
      "hasRole(bytes32,address)": {
        "details": "Returns `true` if `account` has been granted `role`."
      },
      "owner()": {
        "details": "Returns the address of the current owner."
      },
      "pendingOwner()": {
        "details": "Returns the address of the pending owner."
      },
      "renounceOwnership()": {
        "details": "Leaves the contract without owner. It will not be possible to call `onlyOwner` functions anymore. Can only be called by the current owner. NOTE: Renouncing ownership will leave the contract without an owner, thereby removing any functionality that is only available to the owner."
      },
      "renounceRole(bytes32,address)": {
        "details": "Revokes `role` from the calling account. Roles are often managed via {grantRole} and {revokeRole}: this function's purpose is to provide a mechanism for accounts to lose their privileges if they are compromised (such as when a trusted device is misplaced). If the calling account had been revoked `role`, emits a {RoleRevoked} event. Requirements: - the caller must be `account`. May emit a {RoleRevoked} event."
      },
      "revokeRole(bytes32,address)": {
        "details": "Revokes `role` from `account`. If `account` had been granted `role`, emits a {RoleRevoked} event. Requirements: - the caller must have ``role``'s admin role. May emit a {RoleRevoked} event."
      },
      "supportsInterface(bytes4)": {
        "details": "See {IERC165-supportsInterface}."
      },
      "transferOwnership(address)": {
        "details": "Starts the ownership transfer of the contract to a new account. Replaces the pending transfer if there is one. Can only be called by the current owner."
      }
    },
    "version": 1
  },
  "userdoc": {
    "kind": "user",
    "methods": {},
    "version": 1
  },
  "storageLayout": {
    "storage": [
      {
        "astId": 3951,
        "contract": "contracts/HOPEPriceFeed/HopeAutomation.sol:HopeAutomation",
        "label": "_owner",
        "offset": 0,
        "slot": "0",
        "type": "t_address"
      },
      {
        "astId": 4064,
        "contract": "contracts/HOPEPriceFeed/HopeAutomation.sol:HopeAutomation",
        "label": "_pendingOwner",
        "offset": 0,
        "slot": "1",
        "type": "t_address"
      },
      {
        "astId": 2007,
        "contract": "contracts/HOPEPriceFeed/HopeAutomation.sol:HopeAutomation",
        "label": "_roles",
        "offset": 0,
        "slot": "2",
        "type": "t_mapping(t_bytes32,t_struct(RoleData)2002_storage)"
      },
      {
        "astId": 784,
        "contract": "contracts/HOPEPriceFeed/HopeAutomation.sol:HopeAutomation",
        "label": "priceFeed",
        "offset": 0,
        "slot": "3",
        "type": "t_address"
      },
      {
        "astId": 786,
        "contract": "contracts/HOPEPriceFeed/HopeAutomation.sol:HopeAutomation",
        "label": "aggregator",
        "offset": 0,
        "slot": "4",
        "type": "t_address"
      },
      {
        "astId": 788,
        "contract": "contracts/HOPEPriceFeed/HopeAutomation.sol:HopeAutomation",
        "label": "heartbeat",
        "offset": 0,
        "slot": "5",
        "type": "t_uint256"
      },
      {
        "astId": 790,
        "contract": "contracts/HOPEPriceFeed/HopeAutomation.sol:HopeAutomation",
        "label": "deviationThreshold",
        "offset": 0,
        "slot": "6",
        "type": "t_uint256"
      },
      {
        "astId": 792,
        "contract": "contracts/HOPEPriceFeed/HopeAutomation.sol:HopeAutomation",
        "label": "lastPrice",
        "offset": 0,
        "slot": "7",
        "type": "t_uint256"
      },
      {
        "astId": 794,
        "contract": "contracts/HOPEPriceFeed/HopeAutomation.sol:HopeAutomation",
        "label": "lastTimestamp",
        "offset": 0,
        "slot": "8",
        "type": "t_uint256"
      }
    ],
    "types": {
      "t_address": {
        "encoding": "inplace",
        "label": "address",
        "numberOfBytes": "20"
      },
      "t_bool": {
        "encoding": "inplace",
        "label": "bool",
        "numberOfBytes": "1"
      },
      "t_bytes32": {
        "encoding": "inplace",
        "label": "bytes32",
        "numberOfBytes": "32"
      },
      "t_mapping(t_address,t_bool)": {
        "encoding": "mapping",
        "key": "t_address",
        "label": "mapping(address => bool)",
        "numberOfBytes": "32",
        "value": "t_bool"
      },
      "t_mapping(t_bytes32,t_struct(RoleData)2002_storage)": {
        "encoding": "mapping",
        "key": "t_bytes32",
        "label": "mapping(bytes32 => struct AccessControl.RoleData)",
        "numberOfBytes": "32",
        "value": "t_struct(RoleData)2002_storage"
      },
      "t_struct(RoleData)2002_storage": {
        "encoding": "inplace",
        "label": "struct AccessControl.RoleData",
        "members": [
          {
            "astId": 1999,
            "contract": "contracts/HOPEPriceFeed/HopeAutomation.sol:HopeAutomation",
            "label": "members",
            "offset": 0,
            "slot": "0",
            "type": "t_mapping(t_address,t_bool)"
          },
          {
            "astId": 2001,
            "contract": "contracts/HOPEPriceFeed/HopeAutomation.sol:HopeAutomation",
            "label": "adminRole",
            "offset": 0,
            "slot": "1",
            "type": "t_bytes32"
          }
        ],
        "numberOfBytes": "64"
      },
      "t_uint256": {
        "encoding": "inplace",
        "label": "uint256",
        "numberOfBytes": "32"
      }
    }
  }
}